:100A0D00454E5445522050494E2E2E0050494E20F1
:100A1D00434F52524543542E2E2E004C4F434B20E4
:100A2D004F50454E45442E2E0057524F4E472050A5
:050A3D00494E2E2E00C1
:080AED00060D313233343500EF
:0F09AF007F0F120AC97F38120AC97F01120AC9C5
:1009BE00E4F513F5147F80120AC9C2A4D2A5C2A60B
:1009CE00D2A77BFF7A0A790D120A427FE87E0312C4
:1009DE000AA97FC0120AC9740D2514F8E6601B120D
:1009EE00080074082514F8A6077FE87E03120AA9EA
:0D09FE000514E51470E1051380DD120925D4
:020A0B0080B1B8
:090AA0007F2A120ADB7F647E004C
:100AA900E4FDFCC3ED9FEC9E5015E4FBFA0BBB0083
:0F0AB900010AEB640A4A70F50DBD00010C80E4E0
:010AC800220B
:100AC9008F90C2B5C2B6D2B77FE87E03120AA9C217
:020AD900B72242
:100ADB008F90D2B5C2B6D2B77FE87E03120AA9C2F5
:020AEB00B72230
:060A42008B158A168917CE
:100A4800E4F518F519AB15AA16A9178519828518A2
:100A580083120A73FF600D120ADB0519E51970E5A8
:0B0A6800051880E17F107E27020AA91C
:10080000E4FFFEEF4E6003020898C2A0D2A1D2A27C
:10081000D2A420B006120AA07F312220B106120A0B
:10082000A07F322220B206120AA07F3322D2A0C2B9
:10083000A1D2A2D2A420B006120AA07F342220B1F5
:1008400006120AA07F352220B206120AA07F3622A5
:10085000D2A0D2A1C2A2D2A420B006120AA07F3791
:100860002220B106120AA07F382220B206120AA066
:100870007F3922D2A0D2A1D2A2C2A420B006120AED
:10088000A07F2A2220B106120AA07F302230B203B4
:08089000020803120AA07F23F5
:01089800223D
:10092500E50D6508705CE50E65097056E50F650A0D
:100935007050E510650B704AE511650C70447FE851
:100945007E03120AA97F01120AC97F81120AC97B97
:10095500FF7A0A7919120A427FE87E03120AA9D2A0
:10096500B3C2B47FC1120AC9D2A4C2A57BFF7A0A59
:100975007928120A427F407E42120AA9D2B3C2B434
:1009850080227F01120AC97F80120AC9D2A6C2A796
:10099500D280C2857BFF7A0A7936120A427F407E71
:0A09A50042120AA97F01120AC922BA
:030000000208995A
:0C089900787FE4F6D8FD7581190208E0B4
:100A7300BB010CE58229F582E5833AF583E0225038
:100A830006E92582F8E622BBFE06E92582F8E22282
:0D0A9300E58229F582E5833AF583E493229C
:1008A5000209AFE493A3F8E493A34003F68001F2B1
:1008B50008DFF48029E493A3F85407240CC8C33354
:1008C500C4540F4420C8834004F456800146F6DF23
:1008D500E4800B0102040810204080900AEDE47EBC
:1008E500019360BCA3FF543F30E509541FFEE49318
:1008F500A360010ECF54C025E060A840B8E493A3DF
:10090500FAE493A3F8E493A3C8C582C8CAC583CA09
:10091500F0A3C8C582C8CAC583CADFE9DEE780BEC1
:010AF5000000
:00000001FF
