:100A0900454E5445522050494E2E2E0050494E20F5
:100A1900434F52524543542E2E2E004C4F434B20E8
:100A29004F50454E45442E2E0057524F4E472050A9
:050A3900494E2E2E00C5
:080AE900060D313233343500F3
:0F09AB007F0F120AC57F38120AC57F01120AC5D5
:1009BA00E4F513F5147F80120AC5C2A4D2A5C2A613
:1009CA00D2A77BFF7A0A7909120A3E7FE87E0312D0
:1009DA000AA57FC0120AC5740D2514F8E6601B1219
:1009EA00080074082514F8A6077FE87E03120AA5F2
:0D09FA000514E51470E1051380DD120925D8
:020A070080B1BC
:090A9C007F2A120AD77F647E0054
:100AA500E4FDFCC3ED9FEC9E5015E4FBFA0BBB0087
:0F0AB500010AEB640A4A70F50DBD00010C80E4E4
:010AC400220F
:100AC5008F90C2B5C2B6D2B77FE87E03120AA5C21F
:020AD500B72246
:100AD7008F90D2B5C2B6D2B77FE87E03120AA5C2FD
:020AE700B72234
:060A3E008B158A168917D2
:100A4400E4F518F519AB15AA16A9178519828518A6
:100A540083120A6FFF600D120AD70519E51970E5B4
:0B0A6400051880E17F107E27020AA524
:10080000E4FFFEEF4E6003020898C2A0D2A1D2A27C
:10081000D2A420B006120A9C7F312220B106120A0F
:100820009C7F322220B206120A9C7F3322D2A0C2C1
:10083000A1D2A2D2A420B006120A9C7F342220B1F9
:1008400006120A9C7F352220B206120A9C7F3622AD
:10085000D2A0D2A1C2A2D2A420B006120A9C7F3795
:100860002220B106120A9C7F382220B206120A9C6E
:100870007F3922D2A0D2A1D2A2C2A420B006120AED
:100880009C7F2A2220B106120A9C7F302230B203BC
:08089000020803120A9C7F23F9
:01089800223D
:10092500E50D6508705CE50E65097056E50F650A0D
:100935007050E510650B704AE511650C70447FE851
:100945007E03120AA57F01120AC57F81120AC57BA3
:10095500FF7A0A7915120A3E7FE87E03120AA5D2AC
:10096500B3C2B47FC1120AC5D2A4C2A57BFF7A0A5D
:100975007924120A3E7F407E42120AA5D2B3C2B440
:10098500801E7F01120AC57F80120AC5D2A6C2A7A2
:100995007BFF7A0A7932120A3E7F407E42120AA50F
:0609A5007F01120AC522C9
:030000000208995A
:0C089900787FE4F6D8FD7581190208E0B4
:100A6F00BB010CE58229F582E5833AF583E022503C
:100A7F0006E92582F8E622BBFE06E92582F8E22286
:0D0A8F00E58229F582E5833AF583E49322A0
:1008A5000209ABE493A3F8E493A34003F68001F2B5
:1008B50008DFF48029E493A3F85407240CC8C33354
:1008C500C4540F4420C8834004F456800146F6DF23
:1008D500E4800B0102040810204080900AE9E47EC0
:1008E500019360BCA3FF543F30E509541FFEE49318
:1008F500A360010ECF54C025E060A840B8E493A3DF
:10090500FAE493A3F8E493A3C8C582C8CAC583CA09
:10091500F0A3C8C582C8CAC583CADFE9DEE780BEC1
:010AF1000004
:00000001FF
