:1009F500454E5445522050494E2E2E0050494E200A
:100A0500434F52524543542E2E2E004C4F434B20FC
:100A15004F50454E45442E2E0057524F4E472050BD
:050A2500494E2E2E00D9
:080AD500060D31323334350007
:0F099F007F0F120AB17F38120AB17F01120AB11D
:1009AE00E4F513F5147F80120AB17BFF7A0979F50D
:1009BE00120A2A7FE87E03120A917FC0120AB174CE
:1009CE000D2514F8E6601B12080074082514F8A60D
:1009DE00077FE87E03120A910514E51470E10513F2
:0509EE0080DD1209216B
:0209F30080B9C9
:090A88007F2A120AC37F647E007C
:100A9100E4FDFCC3ED9FEC9E5015E4FBFA0BBB009B
:0F0AA100010AEB640A4A70F50DBD00010C80E4F8
:010AB0002223
:100AB1008F90C2B5C2B6D2B77FE87E03120A91C247
:020AC100B7225A
:100AC3008F90D2B5C2B6D2B77FE87E03120A91C225
:020AD300B72248
:060A2A008B158A168917E6
:100A3000E4F518F519AB15AA16A9178519828518BA
:100A400083120A5BFF600D120AC30519E51970E5F0
:0B0A5000051880E17F107E27020A914C
:10080000E4FFFEEF4E6003020894C2A0D2A1D2A280
:10081000D2A420B006120A887F312220B106120A23
:10082000887F322220B206120A887F3322D2A0C2E9
:10083000A1D2A2D2A420B006120A887F342220B10D
:1008400006120A887F352220B206120A887F3622D5
:10085000D2A0D2A1C2A2D2A420B006120A887F37A9
:100860002220B106120A887F382220B206120A8896
:100870007F3922D2A0D2A1D2A2C2A420B00280038A
:1008800020B106120A887F2A2230B203020803121E
:040890000A887F2330
:010894002241
:10092100E50D65087058E50E65097052E50F650A19
:10093100704CE510650B7046E511650C70407FE861
:100941007E03120A917F01120AB17F81120AB17BE3
:10095100FF7A0A7901120A2A7FE87E03120A91D2EC
:10096100B3C2B47FC1120AB17BFF7A0A7910120AAD
:100971002A7F407E42120A91D2B3C2B4801A7F010B
:10098100120AB17F80120AB17BFF7A0A791E120A1C
:0E0991002A7F407E42120A917F01120AB12293
:030000000208955E
:0C089500787FE4F6D8FD7581190208DCBC
:100A5B00BB010CE58229F582E5833AF583E0225050
:100A6B0006E92582F8E622BBFE06E92582F8E2229A
:0D0A7B00E58229F582E5833AF583E49322B4
:1008A10002099FE493A3F8E493A34003F68001F2C5
:1008B10008DFF48029E493A3F85407240CC8C33358
:1008C100C4540F4420C8834004F456800146F6DF27
:1008D100E4800B0102040810204080900AD5E47ED8
:1008E100019360BCA3FF543F30E509541FFEE4931C
:1008F100A360010ECF54C025E060A840B8E493A3E3
:10090100FAE493A3F8E493A3C8C582C8CAC583CA0D
:10091100F0A3C8C582C8CAC583CADFE9DEE780BEC5
:010ADD000018
:00000001FF
