:1009F900454E5445522050494E2E2E0050494E2006
:100A0900434F52524543542E2E2E004C4F434B20F8
:100A19004F50454E45442E2E0057524F4E472050B9
:050A2900494E2E2E00D5
:080AD900060D31323334350003
:0F09A3007F0F120AB57F38120AB57F01120AB50D
:1009B200E4F513F5147F80120AB57BFF7A0979F901
:1009C200120A2E7FE87E03120A957FC0120AB574BE
:1009D2000D2514F8E6601B12080074082514F8A609
:1009E200077FE87E03120A950514E51470E10513EA
:0509F20080DD12092563
:0209F70080B9C5
:090A8C007F2A120AC77F647E0074
:100A9500E4FDFCC3ED9FEC9E5015E4FBFA0BBB0097
:0F0AA500010AEB640A4A70F50DBD00010C80E4F4
:010AB400221F
:100AB5008F90C2B5C2B6D2B77FE87E03120A95C23F
:020AC500B72256
:100AC7008F90D2B5C2B6D2B77FE87E03120A95C21D
:020AD700B72244
:060A2E008B158A168917E2
:100A3400E4F518F519AB15AA16A9178519828518B6
:100A440083120A5FFF600D120AC70519E51970E5E4
:0B0A5400051880E17F107E27020A9544
:10080000E4FFFEEF4E6003020898C2A0D2A1D2A27C
:10081000D2A420B006120A8C7F312220B106120A1F
:100820008C7F322220B206120A8C7F3322D2A0C2E1
:10083000A1D2A2D2A420B006120A8C7F342220B109
:1008400006120A8C7F352220B206120A8C7F3622CD
:10085000D2A0D2A1C2A2D2A420B006120A8C7F37A5
:100860002220B106120A8C7F382220B206120A8C8E
:100870007F3922D2A0D2A1D2A2C2A420B006120AED
:100880008C7F2A2220B106120A8C7F302230B203DC
:08089000020803120A8C7F2309
:01089800223D
:10092500E50D65087058E50E65097052E50F650A15
:10093500704CE510650B7046E511650C70407FE85D
:100945007E03120A957F01120AB57F81120AB57BD3
:10095500FF7A0A7905120A2E7FE87E03120A95D2DC
:10096500B3C2B47FC1120AB57BFF7A0A7914120AA1
:100975002E7F407E42120A95D2B3C2B4801A7F01FF
:10098500120AB57F80120AB57BFF7A0A7922120A0C
:0E0995002E7F407E42120A957F01120AB52283
:030000000208995A
:0C089900787FE4F6D8FD7581190208E0B4
:100A5F00BB010CE58229F582E5833AF583E022504C
:100A6F0006E92582F8E622BBFE06E92582F8E22296
:0D0A7F00E58229F582E5833AF583E49322B0
:1008A5000209A3E493A3F8E493A34003F68001F2BD
:1008B50008DFF48029E493A3F85407240CC8C33354
:1008C500C4540F4420C8834004F456800146F6DF23
:1008D500E4800B0102040810204080900AD9E47ED0
:1008E500019360BCA3FF543F30E509541FFEE49318
:1008F500A360010ECF54C025E060A840B8E493A3DF
:10090500FAE493A3F8E493A3C8C582C8CAC583CA09
:10091500F0A3C8C582C8CAC583CADFE9DEE780BEC1
:010AE1000014
:00000001FF
