:100A1100454E5445522050494E2E2E0050494E20ED
:100A2100434F52524543542E2E2E004C4F434B20E0
:100A31004F50454E45442E2E0057524F4E472050A1
:050A4100494E2E2E00BD
:080AF100060D313233343500EB
:0F09B3007F0F120ACD7F38120ACD7F01120ACDB5
:1009C200E4F513F5147F80120ACDC2A4D2A5C2A603
:1009D200D2A77BFF7A0A7911120A467FE87E0312B8
:1009E2000AAD7FC0120ACD740D2514F8E6601B1201
:1009F200080074082514F8A6077FE87E03120AADE2
:0D0A02000514E51470E1051380DD1208995C
:020A0F0080B1B4
:090AA4007F2A120ADF7F647E0044
:100AAD00E4FDFCC3ED9FEC9E5015E4FBFA0BBB007F
:0F0ABD00010AEB640A4A70F50DBD00010C80E4DC
:010ACC002207
:100ACD008F90C2B5C2B6D2B77FE87E03120AADC20F
:020ADD00B7223E
:100ADF008F90D2B5C2B6D2B77FE87E03120AADC2ED
:020AEF00B7222C
:060A46008B158A168917CA
:100A4C00E4F518F519AB15AA16A91785198285189E
:100A5C0083120A77FF600D120ADF0519E51970E59C
:0B0A6C00051880E17F107E27020AAD14
:10080000E4FFFEEF4E6003020898C2A0D2A1D2A27C
:10081000D2A420B006120AA47F312220B106120A07
:10082000A47F322220B206120AA47F3322D2A0C2B1
:10083000A1D2A2D2A420B006120AA47F342220B1F1
:1008400006120AA47F352220B206120AA47F36229D
:10085000D2A0D2A1C2A2D2A420B006120AA47F378D
:100860002220B106120AA47F382220B206120AA45E
:100870007F3922D2A0D2A1D2A2C2A420B006120AED
:10088000A47F2A2220B106120AA47F302230B203AC
:08089000020803120AA47F23F1
:01089800223D
:10089900E50D6508705CE50E65097056E50F650A9A
:1008A9007050E510650B704AE511650C70447FE8DE
:1008B9007E03120AAD7F01120ACD7F81120ACDD2C1
:1008C900A4C2A57BFF7A0A791D120A467FE87E0336
:1008D900120AADD2B3C2B47FC1120ACD7BFF7A0A24
:1008E900792C120A467F407E42120AADD2B3C2B4B5
:1008F90080267F01120ACD7F80120ACDD2A6C2A717
:10090900D280C2857BFF7A0A793A120A46C280D21E
:0E091900857F407E42120AAD7F01120ACD2278
:03000000020927CB
:0C092700787FE4F6D8FD75811902096E96
:100A7700BB010CE58229F582E5833AF583E0225034
:100A870006E92582F8E622BBFE06E92582F8E2227E
:0D0A9700E58229F582E5833AF583E4932298
:100933000209B3E493A3F8E493A34003F68001F21E
:1009430008DFF48029E493A3F85407240CC8C333C5
:10095300C4540F4420C8834004F456800146F6DF94
:10096300E4800B0102040810204080900AF1E47E29
:10097300019360BCA3FF543F30E509541FFEE49389
:10098300A360010ECF54C025E060A840B8E493A350
:10099300FAE493A3F8E493A3C8C582C8CAC583CA7B
:1009A300F0A3C8C582C8CAC583CADFE9DEE780BE33
:010AF90000FC
:00000001FF
